:020000020000FC
:100000000CEF0AB901E004B910E01BB911E015B911
:100010000E94400014EE1BB911E015B90E94400087
:1000200010E91BB910E015B90E94400010EC1BB993
:1000300010E015B90E94400014E61BB910E015B994
:100040000E94400018E41BB910E015B90E9440005E
:1000500018E01BB910E015B90E94400010EE1BB962
:1000600011E015B90E94400010E01BB910E015B96D
:100070000E94400010E61BB910E015B90E94400034
:1000800000E210E020E02A95F1F71A95E1F70A95D1
:06009000D1F70895FFCF37
:00000001FF
