:100000000C9434000C943E000C943E000C943E0082
:100010000C943E000C943E000C943E000C943E0068
:100020000C943E000C943E000C943E000C943E0058
:100030000C943E000C943E000C943E000C943E0048
:100040000C943E000C943E000C943E000C943E0038
:100050000C943E000C943E000C943E000C943E0028
:100060000C943E000C943E0011241FBECFEFD8E04C
:10007000DEBFCDBF0E9440000C945E000C940000D7
:1000800087E084B988EF8AB984E08BB909C081E040
:10009000911101C080E0880F880F9BB1892B8BB92B
:1000A00083B193B1927023B180FDF1CF992321F0F8
:1000B00022FF02C084E0F1CF80E0EFCFF894FFCFC1
:00000001FF
