:100000000C9434000C943E000C943E000C943E0082
:100010000C943E000C943E000C943E000C943E0068
:100020000C943E000C943E000C943E000C943E0058
:100030000C943E000C943E000C943E000C943E0048
:100040000C943E000C943E000C943E000C943E0038
:100050000C943E000C943E000C943E000C943E0028
:100060000C943E000C943E0011241FBECFEFD8E04C
:10007000DEBFCDBF0E9440000C94CC000C94000069
:100080008CE38AB980E284B980EC8BB983E085B9CE
:1000900020E030E050E040E0E0E271E03AC02223AE
:1000A00009F461C0411173C080E090E051114CC06F
:1000B000332309F455C0222309F452C020E040E163
:1000C000660F660F6BB93BB1880F991F880F991F98
:1000D000880F991F832B8BB98BB1842B8BB98BB174
:1000E000822B8BB929B126FB222720F939B1331F86
:1000F0003327331F53B1517043B14695417015B842
:100100006FEF83EC99E0615080409040E1F700C0D0
:100110000000E5B96FEF83EC99E0615080409040BA
:10012000E1F700C00000622F67273111B8CF4423E8
:1001300071F080E090E0552389F02223C1F0332351
:1001400009F4BCCF411118C020E240E0B9CF822FA2
:1001500090E05111F2CF442309F4AACF2223A1F356
:1001600020E040E0ADCF81E090E05523A1F34423AF
:1001700061F020E240E1A4CF552391F340E0332326
:1001800011F0211107C020E09BCF40E1F8CF80E0C3
:0C01900090E0DFCF20E294CFF894FFCF86
:00000001FF
